:10000000004000207D2C0000B52C0000C52D000014
:1000100000000000000000000000000000000000E0
:10002000000000000000000000000000B52C0000EF
:100030000000000000000000B52C0000B52C0000FE
:10004000B52C0000B52C0000B52C0000B52C00002C
:10005000B52C000000000000B52C0000B52C0000FD
:10006000B52C0000B52C0000B52C0000B52C00000C
:10007000B52C0000B52C0000B52C0000B52C0000FC
:10008000B52C0000B52C0000B52C0000B52C0000EC
:10009000B52C0000B52C0000B52C0000B52C0000DC
:0800A000B52C0000B52C000096
:1000A80081B000200090009801B0704784B00A46E3
:1000B80003460290039103980299086002980192FE
:1000C800009304B0704780B584B002F047F90390FC
:1000D800FFE703980190FFE7012001990140009193
:1000E800FFE70098012804D0FFE702A8002101706B
:1000F80003E002A801210170FFE702A8007804B01C
:1001080080BD81B002200090009801B0704783B094
:1001180001460190019802900298009103B070473F
:1001280083B001460190019802900298009103B0B3
:10013800704783B00146019001980290029800919F
:1001480003B0704783B0014601900198029002986D
:10015800009103B0704783B0014601900198029066
:100168000298009103B0704784B00146029002984B
:100178000078C207002A0191009009D0FFE7009893
:10018800012804D1FFE703A80121017004E0FEDE85
:1001980003A800210170FFE703A8007804B07047A6
:1001A80084B00146029002980078002801910090DE
:1001B8000DD0FFE7009801280DD0FFE7009802282E
:1001C80004D1FFE703A80321017008E0FEDE03A8BD
:1001D8000021017003E003A801210170FFE70398E3
:1001E80004B0704785B00A460346039004A801701E
:1001F80002920193FFE7039801680122914301608D
:1002080004A800780090FFE703980168009A11435A
:100218000160039805B0704780B584B0014602902C
:10022800029803AA0123137012780191114600F075
:1002380005F80090FFE7009804B080BD80B588B04D
:100248000A460346069007A801700699059204938A
:100258000391FFF789FF0290FFE70120029901400F
:100268000398FFF7BFFF0190FFE7019808B080BD32
:1002780084B0014602900298007807280191009006
:100288000CD800987844007940008744080C101472
:10029800181C200303A8072101701CE0FEDE03A838
:1002A8000021017017E003A80121017013E003A8E1
:1002B800022101700FE003A8032101700BE003A8DD
:1002C8000421017007E003A80521017003E003A8D9
:1002D80006210170FFE7039804B0704784B0014617
:1002E800029002980078C207002A0191009009D074
:1002F800FFE70098012804D1FFE703A80121017056
:1003080004E0FEDE03A800210170FFE703A80078DF
:1003180004B0704784B00146029002980078002823
:10032800019100900DD0FFE7009801280DD0FFE75C
:100338000098022804D1FFE703A80321017008E010
:10034800FEDE03A80021017003E003A8022101706A
:10035800FFE7039804B0704785B00A460346039048
:1003680004A8017002920193FFE7039801680C2228
:100378009143016004A800780321084080000090A0
:10038800FFE703980168009A11430160039805B0DC
:10039800704780B588B00A460346069007A80170E2
:1003A8000699059204930391FFF7FAFE0290FFE77E
:1003B80003980299FFF7D0FF0190FFE7019808B072
:1003C80080BD80B584B001460290029803AA00233C
:1003D8001370039A01911146FFF7DBFF0090FFE7C6
:1003E800009804B080BD85B00A460346039004A86F
:1003F800017002920193FFE7039801680722130234
:100408009943016004A80078104000020090FFE7BB
:1004180003980168009A11430160039805B070477A
:1004280080B584B001460290029803AA0023137095
:10043800039A0191114600F005F80090FFE7009833
:1004480004B080BD80B588B00A460346069007A868
:1004580001700699059204930391FFF709FF029032
:10046800FFE703980299FFF7BEFF0190FFE70198A5
:1004780008B080BD80B584B001460290029803AAF6
:100488000123137012780191114600F020F80090B2
:10049800FFE7009804B080BD85B00A460346039084
:1004A80004A8017002920193FFE7039801680222F1
:1004B8009143016004A8007840000090FFE703988A
:1004C8000168009A11430160039805B0704780B530
:1004D80088B00A460346069007A801700699059257
:1004E80004930391FFF7FAFE0290FFE701200299B7
:1004F80001400398FFF7D0FF0190FFE7019808B08B
:1005080080BD85B00A460346039004A80170029294
:100518000193FFE7039801680322130499430160DC
:1005280004A80078104000040090FFE703980168D1
:10053800009A11430160039805B0704780B588B0F0
:100548000A460346069007A8017006990592049387
:100558000391FFF7DFFE0290FFE703980299FFF788
:10056800D0FF0190FFE7019808B080BD80B584B046
:1005780001460290029803AA00231370039A01917E
:100588001146FFF7DBFF0090FFE7009804B080BD3D
:1005980080B584B001460190009101F04BFE0290B5
:1005A800FFE702980349401800F042F9FFE704B05A
:1005B80080BDC0460C05000080B586B00146059098
:1005C800059803910290FFE7012041030298FFF785
:1005D8006DFD0190FFE7019806B080BD80B584B03D
:1005E80001460190009101F025FE0290FFE7029874
:1005F800A121C900401800F038F9FFE704B080BD18
:1006080080B586B001460590059803910290FFE7F2
:1006180001204103029800F0D7F80190FFE7019804
:1006280006B080BD80B586B001F004FE0390FFE7F8
:10063800FFE703987121090140180290029800F021
:100648004EF9FFE706B080BD80B58EB001460D902B
:100658000D980B91FFF75BFD0A90FFE70A98FFF7EB
:10066800DBFD0990FFE70998FFF763FD0890FFE7B6
:100678000898FFF7D5FE0790FFE70798FFF750FDAA
:100688000690FFE70698FFF79CFE0590FFE70598A0
:10069800FFF761FD0490FFE70498FFF767FF0390F9
:1006A800FFE70398FFF74EFD0290FFE70298FFF778
:1006B800E1FE0190FFE701980EB080BD80B586B0DD
:1006C80001F0B8FD0390FFE7FFE7039804494018DD
:1006D8000290029800F0E6F8FFE706B080BDC04639
:1006E8003407000080B58EB001460D900D980B912F
:1006F800FFF70DFD0A90FFE70A98FFF78DFD0990B7
:10070800FFE70998FFF715FD0890FFE70898FFF73E
:1007180087FE0790FFE70798FFF702FD0690FFE7BF
:100728000698FFF74EFE0590FFE70598FFF713FDC3
:100738000490FFE70498FFF719FF0390FFE7039879
:10074800FFF700FD0290FFE70298FFF793FE019084
:10075800FFE701980EB080BD80B586B0FFF7B3FC07
:1007680002A90870FFE700F05EF8FFE701F056FE07
:10077800FFE705A80490049800F034F803A908706E
:10078800FFE702A801F0EEFD0090FFE70098C1071F
:10079800002903D0FFE700F041F8FFE703A800783D
:1007A80006B080BD80B582B0FFF7D6FF0090FFE7A6
:1007B800012000990140084602B080BD81B00020A8
:1007C8000090009801B0704784B00A460346029032
:1007D800039103980299086002980192009304B06B
:1007E8007047D4D480B584B0014602900A48007896
:1007F800C0070028009103D1FFE701F01FFD03E0C7
:1008080003A80021017003E003A801210170FFE79C
:1008180003A8007804B080BD0000002080B501F076
:100828009BFDFFE780BD80B501F094FDFFE780BD2B
:1008380080B588B0014602900191FFF731FC049021
:10084800FFE704A805900598FFF7B6FE0090FFE7BC
:100858000298049906900791069801F0D8FD079927
:1008680001F006FDFFE708B080BD80B588B00146FD
:1008780002900191FFF7A2FF0490FFE704A80590FA
:100888000598FFF7BDFE0090FFE7029804990690CF
:100898000791069801F0BBFD079901F0E9FCFFE715
:1008A80008B080BD80B588B0014602900191FFF77D
:1008B80028FC0490FFE704A805900598FFF712FFAD
:1008C8000090FFE70298049906900791069801F0B6
:1008D8009EFD079901F0CCFCFFE708B080BD80B50C
:1008E80088B0014602900191FFF70BFC0490FFE7E6
:1008F80004A805900598FFF7A7FE0090FFE7029867
:10090800049906900791069801F081FD079901F076
:10091800AFFCFFE708B080BD86B0FFF743FF01A931
:100928000870FFE701A80078C007002801D1FFE799
:1009380021E000F08DF8FFE701F009F9FFE7FFF784
:10094800BDFEFFE7FFF76EFEFFE7FFE705A8FFF72D
:100958001FFEFFE77D20C10004A801F003F9FFE7AF
:1009680005A8FFF73BFEFFE77D20C10004A801F0C2
:10097800F9F8FFE7EAE7FEE782B00146019001983F
:10098800009102B0704780B584B001460390039887
:100998000291FFF7F1FF0190FFE7019804B080BDD5
:1009A80082B00146019001980068009102B070473A
:1009B80081B000200090009801B0704783B00146D4
:1009C80002900298009103B0704782B001460190EE
:1009D80001980078009102B0704785B001460290F6
:1009E8000298006801910090FFE70F2000990140EC
:1009F80004A80170049803A90870039805B070470B
:100A080081B004200090009801B0704784B00A4675
:100A18000346029003910398029908600298019294
:100A2800009304B0704783B0014602900298009189
:100A380003B0704780B582B000F0F2FAFFE702B069
:100A480080BD80B582B0FFF7F5FFFFE702B080BD3B
:100A5800C2B042B07047F0B58BB01C4615460E4682
:100A6800074606900791089209930698002805946E
:100A7800049503960297019004D0FFE70198012896
:100A880006D004E00898099901F056FDFEDEFEDE66
:100A980007980A900A9806990129009003D1FFE760
:100AA80000980BB0F0BDFBE781B0002000900098E3
:100AB80001B0704783B0014602900298009103B0DC
:100AC800704710B588B01946144605930492059AE4
:100AD800002A03910294019006D1FFE70498019936
:100AE80048600020087008E007A8022101700798F4
:100AF8000199487001200870FFE708B010BD85B063
:100B08000A460346039004A8017002920193FFE786
:100B180003980168012212049143016004A8007837
:100B280000040090FFE703980168009A11430160F0
:100B3800039805B0704780B584B0014602900298CA
:100B4800019100F005F80090FFE7009804B080BD1F
:100B580080B586B001460490049805AA0390104613
:100B6800029100F0FAF80190FFE701200199014095
:100B78000398FFF7C4FF0090FFE7009806B080BD18
:100B880085B00A460346039004A8017002920193B7
:100B9800FFE703980168012252049143016004A809
:100BA800007840040090FFE703980168009A114319
:100BB8000160039805B0704780B584B00146029083
:100BC8000298019100F005F80090FFE7009804B042
:100BD80080BD80B586B001460490049805AA0390AC
:100BE8001046029100F0C0F80190FFE7012001993A
:100BF80001400398FFF7C4FF0090FFE7009806B094
:100C080080BD85B00A460346039004A8017002928D
:100C18000193FFE703980168012292049143016060
:100C280004A8007880040090FFE703980168009A00
:100C380011430160039805B0704780B584B0014640
:100C480002900298019100F005F80090FFE70098E3
:100C580004B080BD80B586B001460490049805AA0A
:100C680003901046029100F086F80190FFE70120FA
:100C7800019901400398FFF7C4FF0090FFE700982F
:100C880006B080BD85B00A460346039004A80170EB
:100C980002920193FFE7039801680122D20491436D
:100CA800016004A80078C0040090FFE70398016879
:100CB800009A11430160039805B0704780B584B06D
:100CC800014602900298019100F005F80090FFE7B4
:100CD800009804B080BD80B586B0014604900498A1
:100CE80005AA03901046029100F04CF80190FFE726
:100CF8000120019901400398FFF7C4FF0090FFE726
:100D0800009806B080BD81B000200090009801B026
:100D1800704783B0014601900198029002980091B3
:100D280003B0704783B00146019001980290029881
:100D3800009103B0704783B001460190019802907A
:100D48000298009103B0704783B001460190019862
:100D580002900298009103B0704782B0014601905A
:100D68000120009102B0704782B001460190012035
:100D7800009102B0704782B00146019001200091B5
:100D880002B0704782B0014601900120009102B084
:100D98007047D4D4F0B5A3B001461F901F98102215
:100DA80000231E901D9119461C921B9301F0CBFE47
:100DB8001B9A1A901046199111461E9A1B9B01F016
:100DC800C2FE1B9A18901046179111461C9A1B9B3D
:100DD80001F0B9FE189A8018199B18181B9C6441D9
:100DE800012500292E4616911590149413951296F4
:100DF80001D116981290129817990029139A1190F8
:100E0800109201D1179810901098119901431498D5
:100E180001431A9800290F904AD1FFE77D20C000AE
:100E280000210F9A0E9010460D910E9A0D9B01F01D
:100E38008AFE159A0C9010460D9B0B9119460E9A36
:100E480001F081FE0D9A0A901046099111460F9AF9
:100E58000D9B01F078FE0A9A10180B9B18180D9C30
:100E680064410125099E002E2F460891079006949B
:100E78000595049701D109980490049808990029C8
:100E8800059A0390029201D108980290029803995A
:100E98000143069801430C98002901900CD1FFE703
:100EA80001982090079921912098219923B0F0BDAD
:100EB800034801F0F3FAFEDE014801F0EFFAFEDE26
:100EC800842E000080B584B00146019001980091FD
:100ED80001F0A4F90290FFE70298A121C900401887
:100EE80001F001F9FFE704B080BD80B586B0014686
:100EF80005900598039100F0E6FE0290FFE702983E
:100F080000F029FF0190FFE7019806B080BD84B08A
:100F18000146019001980390002002900298039ADC
:100F28000091114604B0704782B0014601AA1070C2
:100F38001078009102B0704784B0014602AA107080
:100F4800107809280191009009D800987844007910
:100F580040008744080C1014181C2024282C17481B
:100F680001F09CFAFEDE03A80021017023E003A82B
:100F7800012101701FE003A8022101701BE003A8F2
:100F88000321017017E003A80421017013E003A8EE
:100F9800052101700FE003A8062101700BE003A8EA
:100FA8000721017007E003A80821017003E003A8E6
:100FB80009210170FFE7039804B07047142F00005F
:100FC80070B58CB019461446054607AE30700993C3
:100FD80008920898099A3378069111461A4605949A
:100FE800049501F0CAFD0022002A0391029010D155
:100FF800FFE70AA8029A039B00F0EAFEFFE70AA8A7
:1010080000F0FCFD01900091FFE7019800990CB0F9
:1010180070BD024801F042FAFEDEC046C42F00004F
:1010280080B590B001A800F072F9FFE701A800F0C0
:101038002FF9FFE701A801F0F1F80390FFE7039803
:101048004A49401800F0DEFFFFE701A8FFF73AFF22
:10105800FFE701A801F0E2F80490FFE704985121A6
:101068000901401801F08CF8FFE701A801F0D6F853
:101078000590FFE7059801214902401800F0EAFFB2
:10108800FFE701A801F0CAF80690FFE7FFE7069816
:1010980015218901401800F06CFFFFE701A801F055
:1010A800BDF80790FFE7FFE707983149401800F0BF
:1010B80060FFFFE701A801F0B1F80890FFE7FFE73C
:1010C8000898A921C900401800F053FFFFE701A8BC
:1010D80001F0A4F80990FFE7FFE7099825494018AF
:1010E80000F047FFFFE701A801F098F80A90FFE732
:1010F800FFE70A9805218901401800F012FFFFE771
:1011080001A801F08BF80B90FFE7FFE70B9851213E
:101118008900401800F005FFFFE701A801F07EF8FC
:101128000C90FFE7FFE70C982921C900401800F050
:10113800F8FEFFE701A801F071F80D90FFE7FFE75F
:101148000D9853218900401800F0EBFEFFE701A835
:1011580001F064F80E90FFE70E986121C90040186D
:1011680000F0DEFFFFE710B080BDC04604050000B8
:10117800440500004C05000080B58CB001460B907A
:101188000B980991FFF7C5FD0890FFE70898FFF74E
:10119800D2FC0790FFE70798FFF7C4FD0690FFE72A
:1011A8000698FFF709FD0590FFE70598FFF7C3FDCF
:1011B8000490FFE70498FFF740FD0390FFE70398CA
:1011C800FFF7C2FD0290FFE70298FFF777FD019055
:1011D800FFE701980CB080BD80B588B00146039048
:1011E8000398029101F01AF80790FFE70798512138
:1011F8000901401800F0B1FF0690FFE706A8FFF7C5
:10120800ECFB05A90870FFE705A8FFF7DEFB04A9BA
:101218000870FFE70498FFF78FFEC0B20190FFE760
:10122800019808B080BD80B588B00A46034603908F
:1012380004A80170049802920193FFF775FE0590C7
:10124800FFE7039800F063F8FFE7039800F0E6FF74
:101258000690FFE7069851210901401805A9079152
:10126800079900F0B5FFFFE708B080BD80B586B0EC
:101278000A46034604900591059804990968039263
:101288000293FFF7C3FB0190FFE7019806B080BD0A
:1012980080B584B0014601900198009100F0BEFF2E
:1012A8000290FFE702980C3000F0EEFDFFE704B073
:1012B80080BD80B584B00146039003980122019156
:1012C800114600F0B7FD0090FFE7009804B080BD1C
:1012D80080B584B0014601900198009100F09EFF0E
:1012E8000290FFE7029800F0ECFDFFE704B080BD34
:1012F80080B584B0014603900398012201911146FC
:1013080000F059FD0090FFE7009804B080BD80B55B
:1013180084B0014601900198009100F07FFF02908F
:10132800FFE70298001D00F092FDFFE704B080BDC2
:1013380080B584B0014603900398012201911146BB
:1013480000F065FD0090FFE7009804B080BDD4D49C
:10135800B0B58AB013460C460546059006A801703C
:101368000792059804930394029500F057FF08909C
:10137800FFE706A80078032801900FD8FFE7089830
:1013880001998A008018152292018018079A0992FB
:10139800099900F0F9FDFFE70AB0B0BD0248042240
:1013A800019901F099F8FEDEDC2F000080B588B0C5
:1013B8000A4603460690079107980699059008463D
:1013C80004920393FFF7DFFA0290FFE7059802996A
:1013D80000F009FB0190FFE7019808B080BDD4D464
:1013E80080B58AB00A460346059006A8017005989C
:1013F8000492039300F012FF0890FFE706A8007814
:10140800032802901CD8FFE7089802998A008018E0
:101418000522920180180790079800F06FFD099047
:10142800FFE709A8FFF7BCFA0190FFE7012001993F
:101438000029009001D10198009000980AB080BD61
:1014480002480422029901F047F8FEDEEC2F000062
:1014580080B588B00A460346049005A80170049830
:101468000392029300F0DAFE0790FFE705A80078E0
:10147800032801900ED8FFE7079801998A00801881
:101488000522920180180690069800F04AFDFFE7B1
:1014980008B080BD02480422019901F01DF8FEDE63
:1014A800FC2F000080B586B00A460346039004A8C6
:1014B80001700398049902920193FFF791FF05A91F
:1014C8000870FFE705A80078C007002806D0FFE7E6
:1014D80003980499FFF7BCFFFFE7FFE705A800782A
:1014E80006B080BD80B586B00A460346029003A8C0
:1014F800017002980192009300F090FE0490FFE7BB
:10150800049801214902401803A90591059900F0A2
:10151800ACFDFFE706B080BD80B58EB00A46034635
:101528000B900C910B98007803280A920993089065
:101538000BD80898784400794000874407142101A3
:101548000C9800F0E6F9079027E0FEDE0C9800F012
:10155800C5F90690FFE7069800F0B6F80590FFE792
:1015680005980D9021E00C9800F0C1F90490FFE770
:10157800049800F0F1F80390FFE703980D9014E049
:101588000C9800F0BDF90290FFE7029800F02CF9E2
:101598000190FFE701980D9007E0079800F06CF9BB
:1015A8000090FFE700980D90FFE70D980EB080BD02
:1015B80084B00146029002980078C207002A01917F
:1015C800009009D0FFE70098012804D1FFE703A89D
:1015D8000121017004E0FEDE03A800210170FFE78D
:1015E80003A8007804B0704784B0014602900298BE
:1015F8000078C207002A0191009009D0FFE70098FF
:10160800012804D1FFE703A80121017004E0FEDEF0
:1016180003A800210170FFE703A8007804B0704711
:1016280084B00146029002980078C207002A01910E
:10163800009009D0FFE70098012804D1FFE703A82C
:101648000121017004E0FEDE03A800210170FFE71C
:1016580003A8007804B0704784B00146029002984D
:101668000078C207002A0191009009D0FFE700988E
:10167800012804D1FFE703A80121017004E0FEDE80
:1016880003A800210170FFE703A8007804B07047A1
:1016980085B00A460346039004A80170029201939C
:1016A800FFE703980168012212029143016004A830
:1016B800007800020090FFE703980168009A114340
:1016C8000160039805B0704780B584B00146029068
:1016D800029803AA0123137012780191114600F0B1
:1016E80005F80090FFE7009804B080BD80B588B089
:1016F8000A460346069007A80170069905920493C6
:101708000391FFF755FF0290FFE70120029901407E
:101718000398FFF7BDFF0190FFE7019808B080BD6F
:1017280085B00A460346039004A80170029201930B
:10173800FFE703980168012252029143016004A85F
:10174800007840020090FFE703980168009A11436F
:101758000160039805B0704780B584B001460290D7
:10176800029803AA0123137012780191114600F020
:1017780005F80090FFE7009804B080BD80B588B0F8
:101788000A460346069007A8017006990592049335
:101798000391FFF729FF0290FFE70120029901401A
:1017A8000398FFF7BDFF0190FFE7019808B080BDDF
:1017B80085B00A460346039004A80170029201937B
:1017C800FFE703980168012292029143016004A88F
:1017D800007880020090FFE703980168009A11439F
:1017E8000160039805B0704780B584B00146029047
:1017F800029803AA0123137012780191114600F090
:1018080005F80090FFE7009804B080BD80B588B067
:101818000A460346069007A80170069905920493A4
:101828000391FFF7FDFE0290FFE7012002990140B6
:101838000398FFF7BDFF0190FFE7019808B080BD4E
:1018480085B00A460346039004A8017002920193EA
:10185800FFE7039801680122D2029143016004A8BE
:101868000078C0020090FFE703980168009A1143CE
:101878000160039805B0704780B584B001460290B6
:10188800029803AA0123137012780191114600F0FF
:1018980005F80090FFE7009804B080BD80B588B0D7
:1018A8000A460346069007A8017006990592049314
:1018B8000391FFF7D1FE0290FFE701200299014052
:1018C8000398FFF7BDFF0190FFE7019808B080BDBE
:1018D80081B000200090009801B0704783B00146A5
:1018E8000190019802900298009103B0704783B06C
:1018F80001460190019802900298009103B0704748
:1019080083B001460190019802900298009103B0BB
:10191800704783B0014601900198029002980091A7
:1019280003B0704783B0014602900298009103B05B
:101938007047D4D410B586B00A4603460490059182
:1019480005980749022403922246029300F014FFE7
:101958000190FFE7012001990140084606B010BD3B
:101968000C3000008AB00A46034604900591059899
:1019780008900898039202930190FFE70498099051
:1019880009980090FFE7009806900199079106983A
:1019980007990AB07047F0B58BB0109C1D461646E3
:1019A8000F46049005910692079308940599069AA4
:1019B80000230A9309930993079B089C03900498B2
:1019C8000160426009990A9A8160C26003614461BA
:1019D8000295019600970BB0F0BD81B000200090F1
:1019E800009801B0704784B00A46034602900391FC
:1019F80003980299086002980192009304B0704716
:101A080083B0014602900298009103B0704780B5F8
:101A180086B0014602AA10700091FFF712F8FFE79E
:101A2800029904A8FFF7FFFBFFE705A80021017052
:101A3800059904A8FFF756FDFFE706B080BDD4D48A
:101A4800B0B590B019461446054609900B930A9212
:101A58000998089107940695FFF7BEFBC0B2059058
:101A6800FFE70B9B0A9A0598FFF7AAFA04900391DF
:101A7800FFE71C4A1C2304980399FEF7ECFF0C901F
:101A8800FFE70C98FFF743FA02900191FFE7164A27
:101A98001C230298019900F0E7F80D90FFE70998D8
:101AA800FFF7F6FBFFE709980EA900220A700D9AC6
:101AB8000E99FFF74DFCFFE70998FFF709FCFFE7D0
:101AC800FFE709980FA900220A700F99FFF7EAFCAF
:101AD8000090FFE70098C107002901D1FFE7F0E770
:101AE80010B0B0BD0E3000002A30000080B588B0BC
:101AF8000A460346069007910698079905900846F6
:101B080004920393FFF746F902910190FFE70598C5
:101B1800019A029BFFF794FFFFE708B080BD80B5EC
:101B280086B00A460346049005A8018004980599E2
:101B3800039008460292019300F05BF90090FFE7DA
:101B480003980099FFF7D2FFFFE706B080BD80B584
:101B580084B003A8042101700398FFF758FFFFE73A
:101B680004B080BD80B584B00A460346029003A83D
:101B780001800298039901920093FFF7D0FFFFE7D5
:101B880004B080BD98B00A4603460790089107A89C
:101B9800149009A8159014981690159817901698EF
:101BA80012490692059300F056FC04900391FFE752
:101BB80017980F49FFF7D6FE02900191FFE70498A6
:101BC800109003991191029A1292019B13936C46FB
:101BD8000225256007490AA810AB2A46FFF7DBFE55
:101BE800FFE705490AA800F095FCFEDE2B2400005B
:101BF8003D190000483000007030000086B00146F2
:101C080005AA00231370012313700078C207002A65
:101C18000191009008D0FFE70098012803D1FFE761
:101C2800002002901AE0FEDE05A80021017001984C
:101C38004168049104990391012102910EE00298F0
:101C4800039906B0704705A80078C0070028F6D0A9
:101C5800FFE705A800210170F1E7F0E70198017896
:101C6800C9070029EFD0F8E7F0B58DB01C46154636
:101C78000E4607460790089109920A93079800288C
:101C88000694059504960397029005D0FFE70298FD
:101C9800012809D0FFE7FEDE08980B900B980799FA
:101CA8000029019005D007E009980A99FFF76AFF13
:101CB800FEDE01980DB0F0BDFBE781B0002000907A
:101CC800009801B0704783B00146019001980290D6
:101CD8000298009103B0704784B0014602900298C0
:101CE80000780328019100900AD800987844007978
:101CF80040008744060A0E0103A8032101700CE086
:101D0800FEDE03A80021017007E003A8012101708D
:101D180003E003A802210170FFE7039804B07047AD
:101D280085B00A460346039004A801700292019305
:101D3800FFE70398016803229143016004A8007833
:101D480010400090FFE703980168009A1143016072
:101D5800039805B0704780B584B001460290029898
:101D680003AA03231370039A0191114600F005F8A2
:101D78000090FFE7009804B080BD80B588B00A469F
:101D88000346069007A801700699059204930391EB
:101D9800FFF7A2FF0290FFE703980299FFF7C0FF41
:101DA8000190FFE7019808B080BD81B00020009045
:101DB800009801B0704784B00A4603460290039128
:101DC80003980299086002980192009304B0704742
:101DD800B0B586B019461446054605930492059B8E
:101DE800049A039102940195FEF76BFEFFE706B093
:101DF800B0BD82B0014601AA10801088009102B0DF
:101E0800704781B000200090009801B0704784B0FE
:101E18000A460346029003910398029908600298C3
:101E28000192009304B0704781B0002000900098A0
:101E380001B0704784B00A460346029003910398A4
:101E48000299086002980192009304B0704780B527
:101E580088B0014602900191FFF7D3FF0490FFE795
:101E680004A805900598FFF763FA0090FFE7029829
:101E7800049906900791069800F0C9FA079900F0AE
:101E8800F7F9FFE708B080BD80B588B00146029039
:101E98000191FFF7C9FF0490FFE704A80590059892
:101EA800FFF707FA0090FFE7029804990690079158
:101EB800069800F0ACFA079900F0DAF9FFE708B0E5
:101EC80080BD80B588B0014602900191FFF76DFF93
:101ED8000490FFE704A805900598FFF709FA009019
:101EE800FFE70298049906900791069800F08FFA88
:101EF800079900F0BDF9FFE708B080BD80B586B04E
:101F080001460390039805900598029100F07FFA26
:101F180000F070FA0190FFE701980490049806B069
:101F280080BD80B584B0014602900298019100F00E
:101F380003F8FFE704B080BD80B588B00146029081
:101F48000191FEF735FD0490FFE704A80590059878
:101F5800FEF734FD0090FFE7029804990690079178
:101F6800069800F054FA079900F082F9FFE708B0E4
:101F780080BD80B584B0014602900298019100F0BE
:101F880024F8FFE704B080BD80B58AB00A4603464E
:101F98000490059103920293FFF71FFD0690FFE757
:101FA800059806A907910799FFF700FA0190FFE73E
:101FB8000498069908900991089800F028FA099958
:101FC80000F056F9FFE70AB080BD80B588B0014639
:101FD80002900191FFF701FD0490FFE704A8059026
:101FE8000598FFF70DFD0090FFE702980499069009
:101FF8000791069800F00BFA079900F039F9FFE706
:1020080008B080BD80B584B0014602900298019165
:1020180000F003F8FFE704B080BD80B588B0014642
:1020280002900191FEF740FD0490FFE704A8059097
:102038000598FEF73FFD0090FFE702980499069087
:102048000791069800F0E3F9079900F011F9FFE706
:1020580008B080BD80B584B0014602900298019115
:1020680000F024F8FFE704B080BD80B58AB00A46C6
:1020780003460490059103920293FFF729FC06900A
:10208800FFE7059806A907910799FFF745FA019018
:10209800FFE70498069908900991089800F0B7F9A5
:1020A800099900F0E5F8FFE70AB080BD80B588B06F
:1020B800014602900191FFF70BFC0490FFE704A88A
:1020C80005900598FFF72EFC0090FFE70298049909
:1020D80006900791069800F09AF9079900F0C8F859
:1020E800FFE708B080BD80B588B001460290019135
:1020F800FFF7E3FD0490FFE704A805900598FEF7B5
:10210800F4FE0090FFE7029804990690079106985C
:1021180000F07DF9079900F0ABF8FFE708B080BD43
:1021280080B588B0014602900191FEF7ECFD04905D
:10213800FFE704A805900598FFF71EF80090FFE751
:102148000298049906900791069800F060F907999B
:1021580000F08EF8FFE708B080BD80B586B0014674
:102168000390039805900598029100F050F900F04B
:1021780041F90190FFE701980490049806B080BDEA
:1021880080B584B0014602900298019100F003F8EE
:10219800FFE704B080BD80B588B001460290019188
:1021A800FEF72EFC0490FFE704A805900598FEF7BB
:1021B8003AFC0090FFE70298049906900791069868
:1021C80000F025F9079900F053F8FFE708B080BD43
:1021D80080B58AB00A46034604900591039202939B
:1021E800FEF70EFC0690FFE7059806A907910799E8
:1021F800FFF73CF80190FFE70498069908900991C9
:10220800089800F004F9099900F032F8FFE70AB0DD
:1022180080BDD4D4004870470080004080B584B0A9
:10222800014603900291FFF7F5FF0190FFE701983F
:1022380004B080BD052000077047D4D4C2B0002088
:1022480000280BD1FFE708480078C007002801D113
:10225800FFE703E0054800F021F9FEDE024801210E
:10226800017042B07047C04600000020FC300000FA
:1022780084B00A46034602900391029803990160CC
:1022880001920093FFE704B0704786B00A46034600
:1022980003900491039804998900401805900598C3
:1022A800029201930090FFE7009806B0704786B04D
:1022B8000A4603460390049103980499890040183C
:1022C80005900598029201930090FFE7009806B0E8
:1022D800704780B58CB00146059007980690049128
:1022E800FFE7059806A90A910A990B910B990390A3
:1022F8000291FFE701220398029900F017F8FFE71F
:10230800069808900898099009980190FFE70198A5
:102318000CB080BD84B00A4603460290039102982F
:10232800039901600192009304B07047B0B586B07C
:1023380013460C46054603900491059203990498A8
:10234800059A920002930194009500F0EEFBFFE7D6
:1023580006B0B0BD72B6704762B67047EFF3108032
:102368007047D4D480B584B0014603900398064AD8
:102378000291114600F00AF80190FFE70120019947
:102388000140084604B080BD1431000092B00A46EE
:102398000346079008910798007800210F910E9046
:1023A8000F980E990692059304900391FFE70398FE
:1023B8000A90089909780022119210911199109A9F
:1023C80002910192FFE701980B900A990B9A9142AA
:1023D80008D1FFE7079808990C900D9109A80121E9
:1023E800017003E009A800210170FFE709A800783F
:1023F80012B0704784B001460290029800680390BA
:10240800039801910090FFE7009804B0704782B0EC
:10241800014601900198009102B0704782B002B065
:10242800704710B586B00A46034604900591049893
:1024380001684068059C0390084603990292224669
:10244800019300F0ABFA0090FFE7012000990140EA
:10245800084606B010BD8AB00A46034604900591A6
:10246800059808900898039202930190FFE7049852
:10247800099009980090FFE7009806900199079144
:10248800069807990AB070477047D4D401480249A2
:102498007047C0464D02C5249248C4E48CB018C8A1
:1024A80008380546083526CD406907940693002369
:1024B8000593084C0494039302930123019306ABFC
:1024C80000930B9008A826C0684608A900F022F8D7
:1024D800FEDEC046183100008CB003460192009120
:1024E8000A480B9069460A91099001A808900220B1
:1024F800079008A9069100210591049103900448CA
:10250800029002A8194600F005F8FEDEAD2A000088
:102518006431000088B01CC90968079103A91DC16E
:10252800034802900348019001A800F0C9FAFEDEB2
:1025380040310000183100008AB00191009009482C
:102548000990684608900120079008A90691002183
:102558000591049103900448029002A80349FFF7EB
:10256800D9FFFEDEBB2A00008C3100009431000048
:10257800F0B587B004460D9F002906D020680121D8
:102588000140002906D02B2506E020687D1C2D215E
:10259800049103E011252D040495CD194607002167
:1025A800002E02D40591069116E00397002B06939E
:1025B80005920CD000211F4613461E78B609022E3C
:1025C80000D1491C7F1E5B1C002FF6D100E00021C2
:1025D800069AAA18551A039F0C9EA168012915D1BD
:1025E8000296E668AE421DD900072AD43020215C45
:1025F800032900D10121721B00208B0703973DD0CE
:1026080002293ED00021019116463EE0204604AB47
:102618000ECB00F096F8002843D1A069E169CB6899
:1026280031460AE0204604AB0ECB00F08AF80028B9
:1026380037D1A069E169CB6802993A4698470546BF
:102648007AE030200121019121546060204604ABDA
:102658000ECB00F076F800286DD120463030017896
:10266800032900D10121721B00208B07039739D061
:1026780002293AD00021069116463AE00646019210
:1026880003E05608511C49080191C7433D466D1C9B
:10269800B54208D26168A069E269126990470028CA
:1026A800F5D0012548E06668204604AB0ECB00F063
:1026B80048F8012500283FD1A069E169CB68029953
:1026C800039A9847002837D10696A669E4697F1CC3
:1026D8000198874233D222693046069990470028EC
:1026E800F5D029E00646069203E05608511C490831
:1026F8000691C5432F467F1CB74207D26168A0697F
:10270800E269126990470028F5D014E06668A0696C
:10271800E169CB680299039A984700280BD1A76909
:10272800E4696D1C0698854209D22269384631460B
:1027380090470028F5D0019D284607B0F0BD002538
:10274800FAE770B51C46154606461120000481427A
:1027580007D0B069F26912699047002801D00120BA
:1027680070BD002D06D0B069F169CB6829462246B4
:10277800984770BD002070BDF0B589B01746054672
:102788000069AB68012B089502D1002803D196E0B7
:10279800002800D1C7E0002F67D001930297CA191B
:1027A8001120000403906869C74300200D46049176
:1027B8000E46014605926C1C287840B2C3B2002828
:1027C80003DB25467F1C47D153E01F200790944226
:1027D80006D06C783F2020400690AC1C254603E0CC
:1027E8001046002206920546079A1A4058090628FC
:1027F80009D907920598854208D028783F220240D7
:102808006C1C254604E09001069A11E0002205465A
:1028180006988001121818090F2807D305988542D1
:102828000CD028783F2303406D1C09E0079800036B
:1028380013182546059A7F1C0ED11AE00023254659
:102848009001079A5207D20A8018C3180398834246
:10285800059A06D07F1C0CD0881B4119AA422E4627
:10286800A9D1029F0499089D09E00027002B26D1D1
:1028780059E003988342029F089D04D10499019B63
:10288800002B1CD14FE000290C4604990CD0BC4207
:102898000AD00020BC42024608D20A573F20C34350
:1028A80000209A42024601DB20460A46002A00D050
:1028B8000746002A019B00D01146002B33D0002088
:1028C800002F0AD03C460A4613789B09022B00D1F8
:1028D800401C641E521C002CF6D1381AEE68B04217
:1028E80021D20020002F02460BD000223B460C4686
:1028F8002578AD09022D00D1521C5B1E641C002BEB
:10290800F6D1D21B3023089CE45C032C034600D08C
:10291800234695199A0704910ED0022B0FD0002157
:1029280007912C460FE0A869EA69D3683A469847A8
:102938000446204609B0F0BD0446079503E06C083C
:10294800691C49080791C64335466D1CA54209D242
:10295800089A51689069D269126990470028F4D0A2
:102968000124E6E7089D68680690A869E969CB68CC
:1029780004993A46984701240028DAD12846AD69D7
:10298800C769761C0798864206D23A69284606998E
:1029980090470028F5D0CCE70024CAE780B50B465D
:1029A800014610461A46FFF7E7FE80BDF0B591B024
:1029B800039202910746364DA84250D90120C043E0
:1029C8002724400004903E4606963046314900F0E0
:1029D800EAF80590691C4143751A64272846394668
:1029E80000F0E1F807A9091942002B4B9B5C049EF3
:1029F8008B558919284B9A1852784A704743E81B17
:102A0800234D059F40001A5C8A7018184078C870DA
:102A1800241F2248069981423E46D5D8642F21DBDF
:102A2800B8B26425294600F0BEF84543791B89B23F
:102A38004900194A535CA41E07AD2B552B19511890
:102A4800497859700A2810DB4000134A135CA11E0C
:102A580007AC6354631810184078587009E02724AD
:102A6800642FDDDA38460A28EEDA611E303007AA0C
:102A780050542720401A6A46506007A84018106032
:102A8800074A002303980299FFF772FD11B0F0BDC1
:102A98000F27000010270000A4310000FFE0F50513
:102AA8001831000080B50A4600680121FFF77EFF53
:102AB80080BD80B50B4606C81846FFF75DFE80BD91
:102AC80084B0014602900191FFE703A80421017038
:102AD800039800F003F8FFE7F7E7D4D484B0014681
:102AE80002AA107010780428019100900BD8009861
:102AF8007844007940008744020807090A0005481D
:102B0800FFF7CCFCFEDEFEDE02E001E000E0FFE7BE
:102B180004B07047B8320000002A05D00B78037063
:102B2800491C401C521EF9D1704710B5042A07D31E
:102B3800134610C910C01B1F032BFAD803231A40D1
:102B4800FFF7EAFF10BD70B55143050C140C2E4673
:102B5800664371184343C91892B2554380B2424341
:102B6800130C5B191D0C49199BB260431818030C10
:102B7800C918000492B2801870BD10B593060BD422
:102B8800002A08D01F2354421A40D0401C400B464C
:102B9800A3401843D14010BD1F200240D14000225D
:102BA8000846114610BDF0B581B000293AD0044658
:102BB8000020002C34D00D46202700293E460090E6
:102BC80004D0284600F030F806460098002C04D0BF
:102BD800204600F029F807460098F11B1F291FD846
:102BE80002D1204601B0F0BD701CC01B4B1C1F2633
:102BF80033402246DA40711A31408C400021E30FFD
:102C08005200D218D3435B19DB171E462E40921B85
:102C180064000C4301211940401EF0D160000818DF
:102C280001B0F0BDFEDEFEDE030C1021002B01D04A
:102C380018000021FF231B02184211D0F023000ABC
:102C4800034211D00C230009034211D0800801224D
:102C580043089A4302235242181A104040187047FA
:102C6800F02308310342EDD10C2304310342EDD1A6
:102C78000231ECE700F024F8FFE70748074900F0C5
:102C880020F8FFE706480749074A00F03EF8FFE743
:102C9800FDF742FEFEDEC0460000002004000020D2
:102CA80000000020000000203433000082B0FFE75D
:102CB80001A804210170019800F062F8FFE7F7E726
:102CC800704780B588B00A4603460690079105927A
:102CD8000493FFE706980799884206D2FFE706980B
:102CE800039000F043F8029001E008B080BD03981B
:102CF8000299FFF7BDFAFFE706980121FFF7C5FA29
:102D08000190FFE701980690E4E7B0B58AB0134652
:102D18000C46054607900891099206930594049578
:102D2800FFE707980899884208D2FFE707980999AA
:102D380003900846FFF7CDFA029001E00AB0B0BD53
:102D480003980299FFF7E6FAFFE707980121FFF7D2
:102D58009CFA0190FFE70198079009980121FFF775
:102D6800A6FA0090FFE700980990DAE782B0FFE73B
:102D78000020019001980090FFE7009802B070478A
:102D880084B0014602AA10701078042801910090BE
:102D98000BD8009878440079400087440208070956
:102DA8000A000548FFF77AFBFEDEFEDE02E001E0DE
:102DB80000E0FFE704B070471C33000070460421B0
:102DC800084202D1EFF3088002E0EFF30980FFE741
:102DD80084B0014602900191FFE703A80421017025
:0A2DE8000398FFF7CDFFFFE7F7E7C0
:102E00002F686F6D652F646F6D696E696B2F2E6310
:102E10006172676F2F72656769737472792F73724D
:102E2000632F6769746875622E636F6D2D316563FA
:102E3000633632393964623965633832332F6E72E2
:102E40006635312D68616C2D302E362E322F73721F
:102E5000632F74696D652E7273000000000000001E
:102E6000617474656D707420746F206D756C746915
:102E7000706C792077697468206F766572666C6F04
:102E800077000000602E000021000000002E0000EE
:102E900059000000190000001100000070726573F5
:102EA00063616C6572206F7574206F662072616E4D
:102EB00067652F686F6D652F646F6D696E696B2F25
:102EC0002E636172676F2F72656769737472792FF1
:102ED0007372632F6769746875622E636F6D2D312D
:102EE0006563633632393964623965633832332F4A
:102EF0006E726635312D68616C2D302E362E322F74
:102F00007372632F68695F7265735F74696D657250
:102F10002E7273009C2E000016000000B22E0000DE
:102F200061000000A7000000120000000000000087
:102F30002F686F6D652F646F6D696E696B2F2E63DF
:102F40006172676F2F72656769737472792F73721C
:102F5000632F6769746875622E636F6D2D316563C9
:102F6000633632393964623965633832332F6E72B1
:102F70006635312D68616C2D302E362E322F7372EE
:102F8000632F68695F7265735F74696D65722E7215
:102F900073000000000000000000000000000000BE
:102FA000617474656D707420746F207368696674E1
:102FB0002072696768742077697468206F7665721B
:102FC000666C6F77A02F000024000000302F0000F7
:102FD00061000000B40000000D000000302F000070
:102FE000610000004301000009000000302F0000D4
:102FF00061000000580100001A000000302F00009E
:10300000610000005E0100001A00000028295449F8
:103010004D455220636F6D706172652076616C75ED
:1030200065206F766572666C6F7754494D45522006
:10303000636F6D706172652076616C756520746F69
:103040006F20776964653A20463000000000000078
:1030500046300000020000007372632F6C696263E7
:103060006F72652F726573756C742E727300000039
:103070005830000015000000E703000005000000C4
:10308000617373657274696F6E206661696C6564E3
:103090003A20214445564943455F504552495048DE
:1030A0004552414C532F686F6D652F646F6D696E8B
:1030B000696B2F2E636172676F2F72656769737416
:1030C00072792F7372632F6769746875622E636FEC
:1030D0006D2D316563633632393964623965633821
:1030E00032332F6E726635312D302E362E302F73DF
:1030F00072632F6C69622E727300000080300000D2
:1031000025000000A5300000540000005D03000011
:1031100009000000000000000000000000000000A6
:10312000696E646578206F7574206F6620626F75B4
:103130006E64733A20746865206C656E2069732034
:103140009124000000000000010000009524000010
:10315000206275742074686520696E6465782069E2
:1031600073200000203100002000000050310000DA
:10317000120000007372632F6C6962636F72652FB7
:103180006F7074696F6E2E7273000000183100004A
:103190000000000074310000150000000A04000067
:1031A00005000000303030313032303330343035CB
:1031B00030363037303830393130313131323133E7
:1031C00031343135313631373138313932303231CD
:1031D00032323233323432353236323732383239B3
:1031E00033303331333233333334333533363337AB
:1031F0003338333934303431343234333434343591
:103200003436343734383439353035313532353376
:10321000353435353536353735383539363036315C
:103220003632363336343635363636373638363942
:10323000373037313732373337343735373637373A
:103240003738373938303831383238333834383520
:103250003836383738383839393039313932393306
:10326000393439353936393739383939746865720E
:1032700065206973206E6F207375636820746869B8
:103280006E6720617320612072656C6178656420CF
:10329000636F6D70696C65722066656E63657372CD
:1032A000632F6C6962636F72652F73796E632F6130
:1032B000746F6D69632E72736C320000320000000F
:1032C0009E3200001A000000C4090000180000002F
:1032D0007468657265206973206E6F20737563680A
:1032E000207468696E6720617320612072656C616B
:1032F00078656420636F6D70696C65722066656EB9
:1033000063657372632F6C6962636F72652F737983
:103310006E632F61746F6D69632E7273D03200001B
:1033200032000000023300001A000000C40900004F
:043330001800000081
:0400000300002C7D50
:00000001FF
